:100000000C9468000C9490000C9490000C94900058
:100010000C9490000C9490000C9490000C94900020
:100020000C9490000C9490000C9490000C94900010
:100030000C9490000C9490000C9490000C94900000
:100040000C94FF030C9490000C9433030C94650300
:100050000C9490000C9490000C9490000C949000E0
:100060000C9490000C949000000000090003020022
:10007000000405080000000000000000000000016E
:10008000020408102040800102040810200102042C
:100090000810204080400404040404040404020204
:1000A000020202020303030303030202030000002F
:1000B0000023002600290000000000250028002B56
:1000C0000000000000240027002A0000E000950343
:1000D00011241FBECFEFD8E0DEBFCDBF11E0A0E0FE
:1000E000B1E0EAEDFFE002C005900D92A231B10748
:1000F000D9F721E0A2E1B1E001C01D92AB3CB2070B
:10010000E1F710E0C8E6D0E004C02197FE010E94AC
:10011000E507C636D107C9F70E94F0030C94EB0738
:100120000C94000061E088E00E940F0561E087E028
:100130000E940F0567E382E191E00C9408018F9221
:100140009F92AF92BF92CF92DF92EF92FF9240E0E8
:1001500060E082E191E00E945A024B015C0160E0A4
:1001600082E191E00E94EA026B017C0120E030E034
:100170004CED51E4C501B4010E94730761E087FDB5
:1001800060E088E00E944B0520E030E048E652E461
:10019000C701B6010E94730761E087FD60E087E058
:1001A0000E944B056AE070E080E090E0FF90EF90E5
:1001B000DF90CF90BF90AF909F908F900C947A0477
:1001C00026E046E165E082E191E00C94E700DC0185
:1001D00015966C93159716964C93169770E0FB0145
:1001E000E158FF4FE4911796EC9317976A567F4FAB
:1001F000FB01649118966C93189740E85EE360E009
:1002000070E01D964D935D936D937C935097089588
:100210001F93CF93DF93EC01162F62E08D810E9434
:100220000F050E944904605D774081099109698743
:100230007A878B879C871A8BDF91CF911F910895C6
:10024000CF92DF92EF92FF92CF93DF93DC0117966C
:10025000CC911797D0E06111DC2F18962C9118974C
:1002600030E0220F331F23553F4F50E040E0F901AB
:1002700085919491FC01F080BA0190E080E0EF2D2F
:10028000EC23ED1310C04F5F5F4F1D96CD90DD90B6
:10029000ED90FC9050976C157D058E059F0538F309
:1002A0006FEF7FEFCB01DF91CF91FF90EF90DF9069
:1002B000CF9008958F929F92AF92BF92CF92DF928C
:1002C000EF92FF920F931F93CF93DF93CDB7DEB7DB
:1002D000C054D1400FB6F894DEBF0FBECDBF8C0125
:1002E000F62E0E944904F11029C0F801C184D2847D
:1002F000E384F4849B01AC012C193D094E095F098C
:1003000069017A0130EDC31637E0D306E104F10448
:10031000A8F48189C05CDE4F0FB6F894DEBF0FBE33
:10032000CDBFDF91CF911F910F91FF90EF90DF90A4
:10033000CF90BF90AF909F908F900895F801618704
:1003400072878387948714821382128211821082AB
:1003500062E085810E940F0561E070E080E090E03E
:100360000E947A0461E0F80185810E940F0560E037
:10037000F80185810E944B05F80186818551823004
:10038000E8F48CE494E00E94B30462E0F801858113
:100390000E940F05F801828990E00E94B304F8944E
:1003A00060E0C8010E9420016F3F7F4F8F4F9F4F39
:1003B00061F4F801118A789480E0ACCF64E170E0D8
:1003C00080E090E00E947A04E0CF61E0C8010E94E2
:1003D00020016F3F7F4F8F4F9F4F59F39E012F5F3B
:1003E0003F4F79015E013FEBA31A3EEFB30A67016D
:1003F00060E0C8010E942001F6016083718382835E
:10040000938361E0C8010E942001F6016483758333
:1004100086839783F8E0CF0ED11CCA14DB0441F722
:10042000789430E020E0F70180809180A280B38052
:100430004481558166817781FFEF8F169F06AF0655
:10044000BF0631F04F3F8FEF58076807780719F460
:10045000F801118AB1CFF90183E0F595E7958A9506
:10046000E1F7E00FF11F8081880F84169506A6063C
:10047000B706F0F080832F5F3F4FF8E0EF0EF11CDE
:100480002832310581F6F801448120818181280FCD
:100490003327331F8281280F311D8381820F932FD1
:1004A000911D99274817190699F681E0818B32CF63
:1004B0008160E0CFCF92DF92EF92FF920F931F9374
:1004C000CF93DF938C01C62F642F0E945A0188239B
:1004D00041F0F80186818C3009F45DC038F48B302E
:1004E000E1F060E070E080EC9FE74CC08551823025
:1004F000C0F7D2816D2F70E0762F662766277F7751
:100500008381682B90E080E00E94C1062DEC3CECDA
:100510004CEC5DE30E94780759C0628170E090E086
:1005200080E00E94C1066B017C01F801D381D7FFF6
:100530000AC0AC019B0160E070E080E89FEB0E9484
:1005400054066B017C01DF706D2F70E090E080E05D
:100550000E94C3062DEC3CEC4CEC5DE30E94780756
:10056000A70196010E945506CC2361F026E636E6E7
:1005700046EE5FE30E94780720E030E040E052E47E
:100580000E945506DF91CF911F910F91FF90EF9040
:10059000DF90CF900895D2816D2F70E090E080E0E1
:1005A0000E94C1066B017C01F80163816F7070E0ED
:1005B00090E080E00E94C3062DEC3CEC4CEC5DE347
:1005C0000E947807A70196010E945506D7FFCCCF5D
:1005D0009058CACFCF92DF92EF92FF92CF93DF93E2
:1005E000EC010E945A01882341F08E818B3028F063
:1005F0008D3040F08551823030F160E070E080EC69
:100600009FE71AC0698170E090E080E00E94C30615
:100610002DEC3CEC4CEC5DE30E9478076B017C0117
:10062000688170E090E080E00E94C3069B01AC010D
:10063000C701B6010E945506DF91CF91FF90EF9060
:10064000DF90CF9008956881798176276727762794
:1006500090E080E00E94C1062DEC3CEC4CEC5DE3A8
:100660000E947807E9CF1F920F920FB60F921124C4
:100670002F938F939F93EF93FF93E0913501F09128
:1006800036018081E0913B01F0913C0182FD1BC06D
:10069000908180913E018F5F8F7320913F0182177F
:1006A00041F0E0913E01F0E0EB5DFE4F958F8093CD
:1006B0003E01FF91EF919F918F912F910F900FBE6F
:1006C0000F901F9018958081F4CF1F920F920FB654
:1006D0000F9211242F933F934F935F936F937F93C8
:1006E0008F939F93AF93BF93EF93FF9385E291E036
:1006F0000E94C405FF91EF91BF91AF919F918F919F
:100700007F916F915F914F913F912F910F900FBE0D
:100710000F901F90189585E291E00E94790521E0E5
:10072000892B09F420E0822F0895E5E2F1E013829D
:10073000128288EE93E0A0E0B0E084839583A683E4
:10074000B78384E091E09183808385EC90E0958786
:10075000848784EC90E09787868780EC90E0918B8B
:10076000808B81EC90E0938B828B82EC90E0958B78
:10077000848B86EC90E0978B868B118E128E138E75
:10078000148E0895AF92BF92CF92DF92EF92FF92B4
:100790000F931F93CF93DF936C017B018B01040FA9
:1007A000151FEB015E01AE18BF08C017D10759F045
:1007B0006991D601ED91FC910190F081E02DC60187
:1007C0000995892B79F7C501DF91CF911F910F9181
:1007D000FF90EF90DF90CF90BF90AF900895089575
:1007E0000E94BE040E94EF030E949200C6EBD5E077
:1007F0000E949F002097E1F30E94B605F9CF1F9257
:100800000F920FB60F9211242F933F938F939F93C4
:10081000AF93BF938091C7019091C801A091C90186
:10082000B091CA013091C60123E0230F2D3768F142
:1008300026E8230F0296A11DB11D2093C6018093C7
:10084000C7019093C801A093C901B093CA018091D8
:10085000C2019091C301A091C401B091C50101965C
:10086000A11DB11D8093C2019093C301A093C40147
:10087000B093C501BF91AF919F918F913F912F91FF
:100880000F900FBE0F901F9018950196A11DB11DDE
:10089000D4CF2FB7F8946091C7017091C8018091AF
:1008A000C9019091CA012FBF08953FB7F894809174
:1008B000C2019091C301A091C401B091C50126B5B8
:1008C000A89B05C02F3F19F00196A11DB11D3FBF88
:1008D000BA2FA92F982F8827BC01CD01620F711D57
:1008E000811D911D42E0660F771F881F991F4A9551
:1008F000D1F708958F929F92AF92BF92CF92DF92DD
:10090000EF92FF926B017C010E9455044B015C0148
:10091000C114D104E104F104E9F00E9453060E94DD
:100920005504681979098A099B09683E7340810555
:10093000910570F321E0C21AD108E108F10888EEB0
:10094000880E83E0981EA11CB11CC114D104E104DF
:10095000F10429F7FF90EF90DF90CF90BF90AF9018
:100960009F908F9008958230910538F0880F991FDD
:10097000880F991F05970197F1F70895789484B52A
:10098000836084BD85B5836085BDEEE6F0E080813F
:1009900081608083E1E8F0E082E080838081816093
:1009A0008083E0E8F0E0808181608083E1EBF0E02B
:1009B000808184608083E0EBF0E0808181608083CF
:1009C00087E880937A001092C1000895843081F006
:1009D00028F48230E9F08330F9F00895883071F01E
:1009E000893091F08530B9F4809180008F7D03C00B
:1009F000809180008F778093800008958091B0006F
:100A00008F778093B00008958091B0008F7DF9CFEB
:100A100084B58F7784BD089584B58F7DFBCFCF9348
:100A2000DF9390E0FC01E158FF4F24918A569F4FDD
:100A3000FC0184918823C9F090E0880F991FFC0184
:100A4000EF53FF4FA591B491FC01E954FF4FC591BD
:100A5000D49161110DC09FB7F8948C912095822399
:100A60008C938881282328839FBFDF91CF9108959D
:100A7000623051F49FB7F8943C91822F8095832384
:100A80008C93E8812E2BEFCF8FB7F894EC912E2B1F
:100A90002C938FBFEACF1F93CF93DF93282F30E0A3
:100AA000F901E859FF4F8491F901E158FF4FD491C2
:100AB000F901EA56FF4FC491CC23A9F0162F8111FA
:100AC0000E94E604EC2FF0E0EE0FFF1FE954FF4F09
:100AD000A591B4918FB7F894EC91111108C0D095FD
:100AE000DE23DC938FBFDF91CF911F910895DE2B22
:100AF000F8CFFC01918D228D892F90E0805C9F4F73
:100B0000821B91098F7399270895FC01918D828D25
:100B1000981731F0828DE80FF11D858D90E00895D2
:100B20008FEF9FEF0895FC01918D828D981761F0F2
:100B3000A28DAE0FBF2FB11D5D968C91928D9F5FE0
:100B40009F73928F90E008958FEF9FEF0895FC01BF
:100B5000538D448D252F30E0842F90E0821B930B22
:100B6000541710F0CF960895019708958BE893E0FD
:100B7000892B49F080E090E0892B29F00E948B03BB
:100B800081110C9400000895FC01A48DA80FB92FC9
:100B9000B11DA35ABF4F2C91848D90E001968F73A5
:100BA0009927848FA689B7892C93A089B1898C91C4
:100BB000837080648C93938D848D981306C0028813
:100BC000F389E02D80818F7D80830895CF93DF931B
:100BD000EC01888D8823B9F0AA89BB89E889F98955
:100BE0008C9185FD03C0808186FD0DC00FB607FC8A
:100BF000F7CF8C9185FFF2CF808185FFEDCFCE01BD
:100C00000E94C405E9CFDF91CF910895EF92FF9242
:100C10000F931F93CF93DF93EC0181E0888F9B8D1F
:100C20008C8D98131AC0E889F989808185FF15C0D9
:100C30009FB7F894EE89FF896083E889F9898081FC
:100C40008370806480839FBF81E090E0DF91CF91CB
:100C50001F910F91FF90EF900895F62E0B8D10E0ED
:100C60000F5F1F4F0F731127E02E8C8D8E110CC05C
:100C70000FB607FCFACFE889F989808185FFF5CFA7
:100C8000CE010E94C405F1CFEB8DEC0FFD2FF11DBD
:100C9000E35AFF4FF0829FB7F8940B8FEA89FB89E4
:100CA00080818062CFCF08955058BB27AA270E9429
:100CB0006C060C9439070E942B0738F00E9432070B
:100CC00020F039F49F3F19F426F40C9428070EF411
:100CD000E095E7FB0C942207E92F0E944A0758F39E
:100CE000BA17620773078407950720F079F4A6F511
:100CF0000C946C070EF4E0950B2EBA2FA02D0B016F
:100D0000B90190010C01CA01A0011124FF27591B50
:100D100099F0593F50F4503E68F11A16F040A22F56
:100D2000232F342F4427585FF3CF469537952795C7
:100D3000A795F0405395C9F77EF41F16BA0B620BC6
:100D4000730B840BBAF09150A1F0FF0FBB1F661F0D
:100D5000771F881FC2F70EC0BA0F621F731F841F50
:100D600048F4879577956795B795F7959E3F08F076
:100D7000B0CF9395880F08F09927EE0F9795879538
:100D80000895E89409C097FB3EF49095809570957E
:100D900061957F4F8F4F9F4F9923A9F0F92F96E9C7
:100DA000BB279395F695879577956795B795F1113C
:100DB000F8CFFAF4BB0F11F460FF1BC06F5F7F4FD9
:100DC0008F4F9F4F16C0882311F096E911C07723EB
:100DD00021F09EE8872F762F05C0662371F096E8F4
:100DE000862F70E060E02AF09A95660F771F881FC3
:100DF000DAF7880F9695879597F90895990F000867
:100E0000550FAA0BE0E8FEEF16161706E807F907DC
:100E1000C0F012161306E407F50798F0621B730B77
:100E2000840B950B39F40A2661F0232B242B252BF8
:100E300021F408950A2609F4A140A6958FEF811D9B
:100E4000811D089597F99F6780E870E060E008953C
:100E50009FEF80EC089500240A94161617061806D2
:100E60000906089500240A941216130614060506AE
:100E70000895092E0394000C11F4882352F0BB0F3F
:100E800040F4BF2B11F460FF04C06F5F7F4F8F4FA2
:100E90009F4F089557FD9058440F551F59F05F3FDD
:100EA00071F04795880F97FB991F61F09F3F79F08C
:100EB00087950895121613061406551FF2CF46950E
:100EC000F1DF08C0161617061806991FF1CF869590
:100ED0007105610508940895E894BB276627772774
:100EE000CB0197F908950E94FE0608F48FEF08954C
:100EF0000E948B070C9439070E942B0738F00E9440
:100F0000320720F0952311F00C9422070C94280747
:100F100011240C946D070E944A0770F3959FC1F34A
:100F2000950F50E0551F629FF001729FBB27F00D97
:100F3000B11D639FAA27F00DB11DAA1F649F6627EC
:100F4000B00DA11D661F829F2227B00DA11D621F3B
:100F5000739FB00DA11D621F839FA00D611D221FF5
:100F6000749F3327A00D611D231F849F600D211DD9
:100F7000822F762F6A2F11249F5750409AF0F1F05C
:100F800088234AF0EE0FFF1FBB1F661F771F881FC5
:100F900091505040A9F79E3F510580F00C942207D4
:100FA0000C946D075F3FE4F3983ED4F386957795F4
:100FB0006795B795F795E7959F5FC1F7FE2B880F6B
:100FC000911D9695879597F90895EE0FFF1F05904F
:0A0FD000F491E02D0994F894FFCF8E
:100FDA00000000000606C203A705E6057905930589
:020FEA0085057B
:00000001FF
